:020000040800F2
:1000000060180020E9010008AF180008E512000898
:10001000AB180008ED0E0008631F00080000000088
:100020000000000000000000000000004D1A000861
:10003000F10E00080000000035190008611B0008DF
:10004000030200080302000803020008030200087C
:10005000030200080302000803020008030200086C
:10006000030200080302000803020008030200085C
:10007000030200080302000803020008030200084C
:10008000030200080302000803020008030200083C
:10009000030200080302000803020008490F0008D9
:1000A000030200080302000803020008030200081C
:1000B00003020008C51B0008030200080302000831
:1000C00003020008030200080302000803020008FC
:1000D0000302000803020008411D00080302000893
:1000E000F50E0008030200080302000800F002F801
:1000F00000F06BF80AA090E8000C82448344AAF157
:100100000107DA4501D100F060F8AFF2090EBAE854
:100110000F0013F0010F18BFFB1A43F0010318473B
:1001200048A6000068A600000A444FF0000C10F832
:10013000013B13F0070408BF10F8014B1D1108BF65
:1001400010F8015B641E05D010F8016B641E01F805
:10015000016BF9D113F0080F1EBF10F8014BAD1C55
:100160000C1B09D16D1E58BF01F801CBFAD505E073
:1001700014F8016B01F8016B6D1EF9D59142D6D3CD
:10018000704700000023002400250026103A28BFF5
:1001900078C1FBD8520728BF30C148BF0B607047F9
:1001A000642900F0B380732900F0018400207047B7
:1001B0001FB500F057FE04000020002102F014FCDF
:1001C000401C60601FBD10B510BD00F013FE11464D
:1001D000FFF7EEFF01F0E2FF00F03AFE03B4FFF795
:1001E000F2FF03BC01F0C6FE0948804709480047FA
:1001F000FEE7FEE7FEE7FEE7FEE7FEE7FEE7FEE7D7
:10020000FEE7FEE704480549054A064B7047000033
:10021000651B0008ED000008601200206018002037
:100220006014002060140020704700000FB40449DF
:1002300010B503AA029800F0BFFB10BC5DF814FBD8
:10024000A00D00200FB41CB5074B06AA7B446946DD
:100250000090059800F081FB0020694600F090FBBB
:100260001CBC5DF814FB00003107000070B50446AB
:1002700085690068C10601D5302600E02026C00748
:1002800007D070BDD4E9012130469047206A401C58
:1002900020626D1EF6D570BD70B504468569007884
:1002A000C00707D170BDD4E9012120209047206A02
:1002B000401C20626D1EF6D570BD70B50C4605461B
:1002C000012A05D02878800600D5EA69002302E0DB
:1002D000012305E05B1C934202D2E05C0028F9D1C7
:1002E000A869E618C01AA861286A18442862284636
:1002F000FFF7BCFF04E0D5E9012114F8010B90479A
:10030000B442F8D32846FFF7C7FF70BD2DE9F0418E
:100310000646002410687529314616A510D0AFF3A3
:100320000080002802DA404213A507E031688A07FE
:1003300001D512A502E0490704D511A5012401E069
:10034000AFF3008000210A2206F1240709E0B0FB88
:10035000F2FCB0FBF2F302FB1C003030785418467C
:10036000491C0028F3D123462A463046BDE8F04117
:1003700000F094BA000000002D0000002B000000E7
:10038000200000002DE9F05F894604464FF0000A86
:10039000DFF824B1FB44C0F820A02046E16888477C
:1003A00000287DD0252806D0D4E901219047206A75
:1003B000401C2062F1E700255F462046E16888473F
:1003C0002028064607DB312E05D2B81910F8200C7C
:1003D00008B10543F1E7A80701D525F00405C4F8E5
:1003E0001CA00027C4F818A02A2E09D0304601F01E
:1003F000BAFD38B304EB8708303EC8F8186019E03E
:1004000059F8041B204604EB87029161E168884794
:10041000012F064618D1E069002820DA25F02005D2
:100420001DE0D8F8180000EB800006EB40003038E3
:10043000C8F818002046E1688847064601F093FD99
:100440000028EED1012F0AD02E2E08D12046E168D7
:1004500088477F1C0646022F45F02005C4DBA069B3
:10046000002803DA404245F00105A061E80701D009
:1004700025F01005A6B1A6F14100192802D82036B2
:1004800045F400654A463146204625604D46FFF753
:1004900087FE60B1012807D0ED1D25F0070000E0C0
:1004A00007E000F1080978E705F1040975E730462F
:1004B0007AE7206ABDE8F09FBDA300000FB400B545
:1004C0008DB010A9099000910B904FF0FF300A9069
:1004D00000200C90064878440690064878446A4606
:1004E00007900F9909A800F08DFA0DB05DF814FB84
:1004F0004B050000630500002DE9FF5F1D464FF02E
:10050000FF3B91464FF000085F46D5E90146A969D7
:1005100001987F1C8847296A824688470028F6D1BF
:10052000BAF1FF3F0CD0002E24F4C06419DD600640
:1005300014D5BAF12B0F09D0BAF12D0F0ED103E06B
:10054000584604B0BDE8F09F44F48064A96901985E
:100550007F1C8847761E8246002E02DDBAF1300FDE
:1005600003D0B9F1000F26D032E0A969761E0198B8
:100570007F1C44F400748847002E824605DDBAF1E2
:10058000780F06D0BAF1580F03D0B9F1000F10D090
:100590001EE0B9F1000F02D0B9F1100F18D1A9690E
:1005A000761E01987F1C24F4007488478246102030
:1005B00002E0082000E00A20814609E0A96908FB62
:1005C0000908761E01987F1C44F40074884782460F
:1005D000002E05DD4946504600F000FA0028EDDA0D
:1005E000E96901988847A00502D46FF00100A8E7E7
:1005F000E00725D1600613D5600502D5C8F10000DB
:1006000000E0404629680A1D2A600968220501D5D4
:10061000087015E0220701D5088011E008600FE09E
:100620002868011D29600068210502D580F8008036
:1006300006E0210702D5A0F8008001E0C0F80080A4
:1006400038467EE72DE9FF5F4FF0000899461446D3
:1006500046469169D2E901A7DDF838B0019888478C
:10066000054659EA0B0005D009E0A1690198761CFE
:1006700088470546216A284688470028F5D1681C26
:1006800003D05FEACA7005D015E04FF0FF3004B028
:10069000BDE8F09F2068011D2160D0F800800AE0CD
:1006A0005FEACA7001D108F8015BA169761C019864
:1006B0007F1E88470546002F1ADD681C18D0B9F147
:1006C000000F0DD0E81705EBD060421120F01F009D
:1006D00059F822102A1A012090400142E0D107E087
:1006E000BBF1000FDCD12846216A88470028D7D00B
:1006F000E16901988847BBF1000F07D1002E05DDA5
:100700005FEACA7002D1002188F80010A068B842E0
:1007100003DDBBF1000F03D017B16FF00100B6E7A6
:100720003046B4E740EA0103024630B59B0710D1DA
:100730004FF0013400E008C208C91D1B9D4315EAB3
:10074000C41FF8D013F0FF0102F8011B0DD01B0AE3
:10075000F8E711F8013B002B02F8013B05D011F836
:10076000013B002B02F8013BF3D130BD40EA01030D
:1007700070B59B072ED14FF00136042A2AD308C842
:1007800010C99D1B9D43121F15EAC61517D0D8B27C
:10079000E1B2401A50EA056110D198B2A1B2401AF4
:1007A00050EA05410AD123F07F4024F07F41401AEE
:1007B00050EA052102D1180EA0EB146070BDA342CF
:1007C000DBD018BA21BA884201D9012070BD4FF0A0
:1007D000FF3070BD0AB9002070BD10F8013B11F860
:1007E000014B63B1A3420AD1521E08D010F8013B5D
:1007F00011F8014B1BB1A34201D1521EEDD1181BC0
:1008000070BD4FF000020429C0F0128010F0030CFC
:1008100000F01B80CCF1040CBCF1020F18BF00F8F3
:10082000012BA8BF20F8022BA1EB0C0100F00DB8A2
:100830005FEAC17C24BF00F8012B00F8012B48BF00
:1008400000F8012B70474FF0000200B513469446A4
:100850009646203922BFA0E80C50A0E80C50B1F118
:100860002001BFF4F7AF090728BFA0E80C5048BF2C
:100870000CC05DF804EB890028BF40F8042B08BFCA
:10088000704748BF20F8022B11F0804F18BF00F8C6
:10089000012B704770477047704770472DE9F0474C
:1008A0000D4699469246044600F1240801688806E0
:1008B00004D5E06921F01001216000E00120A84288
:1008C00001DD471B00E00027A1697A1902EB09004E
:1008D000081AA0612078C00602D42046FFF7C6FCA3
:1008E000002608E0D4E901211AF806009047206AA2
:1008F000401C761C20624E45F4DB2078C0060AD5E9
:100900002046FFF7B3FC06E0D4E9012130209047F0
:10091000206A401C2062381EA7F10107F4DC07E0C2
:10092000D4E9012118F805009047206A401C206294
:10093000281EA5F10105F3DC2046FFF7ADFC207869
:10094000000602D50220BDE8F0870120FBE7000089
:1009500001694A1C02610878704700B58FB0CDE983
:1009600001310021059105497944CDE90310114673
:100970006846FFF707FD0FB000BD0000E5FFFFFF71
:100980000A6802F8010B0A60704710B5436913B199
:10099000AFF3008001E0FFF790FC012010BD12785A
:1009A00000F124010A7000224A700122EDE711686B
:1009B0004FF0FF32E9E70000074B70B50D467B446E
:1009C000FFF7CBFF0446284600F010FA10B14FF0B5
:1009D000FF3070BD204670BDBF1700003A2800D21E
:1009E000303820F02002412A01D3A2F1370088429A
:1009F00001D34FF0FF307047026811441378016053
:100A000018467047D16005497944516104497944D9
:100A1000116200211161114600F02EB8EDFFFFFFB9
:100A200053000000426842B1016811F8013B23B154
:100A3000521EC0E90012184670470121C160881E8D
:100A4000704742685AB1C368016843B983688B42F2
:100A500005D0491E521CC0E90012002070474FF01B
:100A6000FF30704710B5044600F0EAF90068005DF9
:100A700000F0010010BD00002DE9F34F4FF0000A17
:100A80000C4656468DB001200C9001F10C000B90E5
:100A900062690B980121904705002DD0252D2CD09F
:100AA000216A8847C0B162690B9801219047216A89
:100AB00088470028F7D16269411E0B98904700E0F3
:100AC000761CA1690D988847216A88470028F7D1CC
:100AD000E1690D988847DBE7A1690D988847A8422E
:100AE000074601D1761CD3E7E1690D9888477F1C42
:100AF00002D1BAF1000F6FD06BE162690B98002749
:100B00003D46394690472A2804D162690B98012155
:100B100090470125DFF8D08262690B980121904748
:100B2000A0F130010A290AD24745E5DC07EB87012D
:100B300000EB4107303FDFD445F01005ECE7E90654
:100B400001D46FF000476C280AD04C2814D06828D4
:100B500015D06A280DD074281CD07A281AD01DE030
:100B600062690B98012190476C2802D045F004057A
:100B700014E045F002050DE045F020050AE0626949
:100B80000B9801219047682802D045F0080505E040
:100B900045F4006562690B9801219047C4E901574B
:100BA00065283DD019DC58287AD00CDC452837D090
:100BB00004DC252826D041289ED131E046282FD0BC
:100BC000472899D12CE05B2877D0612828D063286A
:100BD0007CD0642823D15AE0F6E06F2848D008DCA6
:100BE00066281DD067281BD0692821D06E2816D111
:100BF00027E0702845D0732868D0752847D078281A
:100C00000DD14DE0A1690D988847252805463FF490
:100C100069AFE1690D9888476D1C3FF46AAFD8E071
:100C20000D9923466A466FF00100AFF30080C5E0DE
:100C300045F0400023464FF000026060A80736D41C
:100C40003EE0E8077FF447AF2068011D216000689F
:100C5000290501D506701BE7290701D5068017E78E
:100C6000A90703D5F117C0E9006111E706600FE796
:100C700045F0400023464FF008026060A80716D4F4
:100C80001EE040F60E0125EA0100606016E045F026
:100C9000400023464FF00A026060A80707D40FE027
:100CA00045F040006060A80708D5234610220D9942
:100CB0006FF00100AFF3008080E007E010222346D0
:100CC0000D996FF00100FFF717FC77E04FF0000976
:100CD00063284F46C8464B46CB4602D05B2806D019
:100CE00038E0E80601D40120A060012732E0626903
:100CF000D4F80CB00B98012190475E2807D14FF033
:100D0000010949466269D4F80CB00B9890472169F3
:100D100039B900210A4603AB43F82120491C0829B0
:100D2000FADBD8B3216949B308F1010862690B986D
:100D3000012190475D28F4D1B9F1000F09D00020BE
:100D400003A951F82020D24341F82020401C082854
:100D5000F7DB03AB2069002820794FEA40701ED0F2
:100D60005B462246CDF80080CDE901970D99002819
:100D70006FF0010020DAAFF300801FE0C11703AA73
:100D800000EBD1614B1121F01F0102EB8302411AEC
:100D900013680120884003431360C7E719E00D99E9
:100DA000224600286FF00100009702DAAFF30080BE
:100DB00004E0FFF747FC01E0AFF3008000280ADA07
:100DC000401C06D10C9820B14FF0FF300FB0BDE8A9
:100DD000F08F5046FAE7E90701D10AF1010A06440B
:100DE00000200C9054E60000CCCCCC0C007B00F032
:100DF00080007047754600F031F8AE460500694640
:100E0000534620F00700854618B020B5FFF7FAF9E1
:100E1000BDE820404FF000064FF000074FF00008FB
:100E20004FF0000B21F00701AC46ACE8C009ACE87C
:100E3000C009ACE8C009ACE8C0098D4670470000A5
:100E400010B500F00FF8001D10BD00BF9D1B000085
:100E50000446AFF300802046FFF7C0F90048704712
:100E60000012002000487047201200204FF0013C83
:100E700050F8042B51F8043B9A4221D1A2EB0C0309
:100E8000934313EACC1317D150F8042B51F8043BC9
:100E90009A4215D1A2EB0C03934313EACC130BD166
:100EA00050F8042B51F8043B9A4209D1A2EB0C03F1
:100EB000934313EACC13DBD04FF00000704700BF20
:100EC000D01A01BAB1FA81F101F0180122FA01F049
:100ED000CB40C1F12001DBB2C0B2C01A2CFA01F341
:100EE000D11A914311EAC311E6D1704700BFFEE762
:100EF0007047000010B5142001F01CF94FF4805029
:100F000000F09EF888B1142001F014F94FF48050DD
:100F100000F096F848B10748007818B906A0FFF726
:100F200085F902E006A0FFF781F94FF4805000F048
:100F300081F810BDE80E00207377303A4B0D0A009F
:100F40007377303A470D0A0010B50F2001F0F2F820
:100F50004FF4807000F074F898B1002201210B4822
:100F600000F092FE48F2304009490880094A6B219E
:100F7000C62000F0FBFB002007490860012007495C
:100F800008704FF4807000F055F810BD0004004068
:100F9000E602002014000020AC012142E4020020FF
:100FA0000EB500F0A1F90121084600F0D5FC08219A
:100FB000012000F0A3F800208DF8080001208DF832
:100FC0000A000002019008208DF8090001A800F035
:100FD0004BF817208DF8000001208DF8010000204B
:100FE0008DF8020001208DF80300684600F060FCD7
:100FF0000C21012000F082F800208DF8080001206B
:101000008DF80A000003019008208DF8090001A85E
:1010100000F02AF828208DF8000002208DF8010049
:1010200000208DF8020001208DF80300684600F0D2
:101030003FFC0EBD014908607047000014040140E8
:10104000014600200022074B1B6803EA0102054B02
:1010500014331B680B4013B10AB1012000E00020DB
:101060007047000000040140002123498279002AD2
:101070003AD00A46126803689A430B461A600A1D62
:10108000126803689A430B1D1A60027911440A68BA
:1010900003681A430A60184A0832126803689A43C0
:1010A000154B08331A601A1D126803689A43124BD5
:1010B0000C331A604279102A0ED11A1F1268036885
:1010C0001A430D4B08331A601A1D126803681A433D
:1010D000094B0C331A600DE00749427911440A6844
:1010E00003681A430A6005E0027911440A6803683C
:1010F0009A430A60704700000004014030B50022A6
:101100008B071C0F0F2303FA04F20B4B8C1053F8C0
:1011100024309343084C8D1044F8253023468C101E
:1011200053F824308C07240F00FA04F42343024CB4
:101130008D1044F8253030BD080001402DE9F04104
:10114000024600250026002000230024002791F8F5
:1011500003C00CF00F0591F803C00CF0100CBCF1AB
:10116000000F03D091F802C04CEA050591F800C0C9
:10117000BCF1000F31D0146800202BE04FF0010CBF
:101180000CFA00F3B1F800C00CEA03069E4220D12D
:1011900083004FF00F0C0CFA03F7BC4305FA03FC75
:1011A0004CEA040491F803C0BCF1280F06D14FF0BB
:1011B000010C0CFA00FCC2F814C00AE091F803C05C
:1011C000BCF1480F05D14FF0010C0CFA00FCC2F83D
:1011D00010C0401C0828D1D31460B1F800C0BCF185
:1011E000FF0F34DD546800202EE000F1080C4FF0B2
:1011F000010808FA0CF3B1F800C00CEA03069E429D
:1012000021D183004FF00F0C0CFA03F7BC4305FA11
:1012100003FC4CEA040491F803C0BCF1280F05D18B
:1012200000F1080C08FA0CF8C2F8148091F803C019
:10123000BCF1480F07D100F1080C4FF0010808FA83
:101240000CF8C2F81080401C0828CED35460BDE8CA
:10125000F0810000F0B50A4600230024002100259B
:1012600000F00046B6F1004F02D11D4EF16901E0D9
:101270001B4E7168C0F3034583B200F44016B6F507
:10128000401F08D121F07061154E766826F0706617
:10129000134F7E6012E000F48016B6F5801F06D171
:1012A000032606FA05F4A14341F0706106E0460DFD
:1012B000360103FA06F6B14341F0706122B1460DE2
:1012C000360103FA06F6314300F00046B6F1004F4E
:1012D00002D1034EF16101E0014E7160F0BD0000EA
:1012E0000000014000BFFEE708B50121082000F022
:1012F00033FB4FF4E240ADF8000028208DF80300E6
:1013000069460248FFF71AFF08BD0000000C0140C3
:1013100070B50446E04384B2EF231A460021084624
:1013200000F080F92C2000F08FFA002508E000265C
:1013300003E0204600F0B0FA761CF02EF9D36D1CC5
:10134000F02DF4D370BD00002DE9FF4F85B081462C
:101350008A462A4800880490002002908346079815
:10136000A0EB09050898A0EB0A06CDF80490CDF88B
:1013700000A0002D01DD012705E00DB9002702E0E6
:101380004FF0FF376D42002E02DD4FF0010806E0FE
:1013900016B94FF0000802E04FF0FF387642B54230
:1013A00001DD2C4600E03446002003901EE0009A48
:1013B00091B2019A90B2049A00F022F8029828445F
:1013C0000290B3440298A04205DD0298001B0290EF
:1013D000019838440190A34504DDABEB040B009861
:1013E000404400900398401C80B20390611C039815
:1013F0008842DCDD09B0BDE8F08F0000E602002085
:1014000070B505460E4614463146284600F000F9F0
:101410002C2000F019FAE04384B2204600F03CFA98
:1014200070BD000008B501210D2000F095FA0121E2
:101430000F48FFF70FFFFF20ADF8000003208DF8E5
:10144000020010208DF8030069460A48FFF776FE77
:101450004FF40F60ADF8000003208DF8020010205B
:101460008DF8030069460448FFF768FE08BD0000D8
:1014700000023000000C01400008014010B5FFF7E9
:10148000D1FF112000F0E0F90A2000F053FE3620D1
:1014900000F0DAF9002000F0EBF93A2000F0D4F97E
:1014A000052000F0E5F9B22000F0CEF90C2000F0A4
:1014B000DFF90C2000F0DCF9002000F0D9F933202E
:1014C00000F0D6F9332000F0D3F9B72000F0BCF9D2
:1014D000352000F0CDF9BB2000F0B6F9352000F042
:1014E000C7F9C02000F0B0F92C2000F0C1F9C220EB
:1014F00000F0AAF9012000F0BBF9C32000F0A4F924
:10150000132000F0B5F9C42000F09EF9202000F06F
:10151000AFF9C62000F098F90F2000F0A9F9CA2011
:1015200000F092F90F2000F0A3F9C82000F08CF928
:10153000082000F09DF9552000F086F9902000F079
:1015400097F9D02000F080F9A42000F091F9A120B3
:1015500000F08EF9E02000F077F9702000F088F9B3
:10156000042000F085F9082000F082F9092000F03D
:101570007FF9092000F07CF9052000F079F92A2094
:1015800000F076F9332000F073F9412000F070F993
:10159000072000F06DF9132000F06AF9132000F025
:1015A00067F9292000F064F92F2000F061F9E120AB
:1015B00000F04AF9702000F05BF9032000F058F9C0
:1015C000092000F055F90A2000F052F9092000F036
:1015D0004FF9062000F04CF92B2000F049F9342097
:1015E00000F046F9412000F043F9072000F040F9EF
:1015F000122000F03DF9142000F03AF9282000F004
:1016000037F92E2000F034F9292000F01DF910BD23
:1016100030B504460D462B4622462946204600F0AA
:1016200001F830BD70B504460D4616462A2000F07C
:101630000BF9002000F01CF9E0B200F019F90020CD
:1016400000F016F9F0B200F013F92B2000F0FCF8CE
:10165000002000F00DF9E8B200F00AF9002000F0D7
:1016600007F9D8B200F004F92C2000F0EDF870BDB5
:101670002DE9F84F81460E4617461C460096122C5F
:1016800002D14FF01B0808E0202C02D14FF0400897
:1016900003E0182C01D14FF02408A7F12000C7B2B5
:1016A000002554E0182C07D107EBC7002A4901EBAD
:1016B000800010F805A014E0202C05D1274800EB8D
:1016C000871010F805A00CE0122C08D107EBC7001A
:1016D00000EB40002249084410F805A001E0BDE8F5
:1016E000F88F4FF0000B2CE00AF0800030B11D485D
:1016F000028831464846FFF783FE07E00A9828B97A
:101700001948028831464846FFF77AFE4FEA4A6098
:101710004FEA106A701C86B2F02E00DBDFE70098FB
:10172000301AA04209D1009E09F101001FFA80F988
:10173000B9F1F00F00DBD2E706E00BF1010000F099
:10174000FF0BBBF1080FCFDB00BF681CC5B24545DE
:10175000A8DB00BFC3E7000039820008958F0008AE
:1017600034780008E6020020E80200202DE9F04766
:1017700006460C461746A146002529E017F805A0A5
:101780004FF000081FE00AF0800030B112480288D4
:1017900021463046FFF734FE05E010480288214616
:1017A0003046FFF72DFE4FEA4A604FEA106A601C90
:1017B00084B2A4EB09001E2803D14C46701C86B2EB
:1017C00004E008F10108B8F1080FDCDB00BF6D1C74
:1017D000782DD3DBBDE8F087E6020020E802002088
:1017E0002DE9F84704460D4690469946DDE909671C
:1017F00004F0FF0A08EB04001FFA80F809EB05006B
:101800001FFA80F916E0444502DB5446A81985B258
:101810004D4500DB14E0002000903A78334629461D
:101820002046FFF725FF304606EBD07104EB61013F
:101830008CB27F1C38787E2802DC38782028E2DAE7
:1018400000BFBDE8F88700001021074A1160202181
:1018500011600649086040211160121F11602021AB
:101860001160102111607047140801400C0C0140F8
:101870001021074A11602021121F116005490860DC
:101880004021121D1160121F11601021116070475C
:10189000140801400C0C014000B503461812FFF774
:1018A000E7FFD8B2FFF7E4FF00BD00BFFEE77047D7
:1018B00070B5002100230F22C47804B3154C2468AE
:1018C00004F4E064C4F5E064210AC1F10403CA40F1
:1018D000447804FA03F184781440214309010E4C42
:1018E0000678A155047804F01F050124AC40057862
:1018F0006D11AD0005F1E025C5F8004109E004785F
:1019000004F01F050124AC40044D0678761145F81B
:10191000264070BD0CED00E000E400E080E100E056
:1019200002490143024A1160704700000000FA05B5
:101930000CED00E07047000029B1064AD26902436D
:10194000044BDA6104E0034AD2698243014BDA6155
:10195000704700000010024029B1064A9269024314
:10196000044B9A6104E0034A92698243014B9A61F5
:10197000704700000010024030B500210022002412
:1019800000232D4D6D6805F00C0121B1042905D00F
:10199000082923D105E0294D056022E0274D056087
:1019A0001FE0254D6D6805F47012234D6D6805F438
:1019B0008034022505EB92421CB9214D5543056048
:1019C0000BE01D4D6D6805F400351DB11C4D5543F0
:1019D000056002E0194D5543056002E0174D0560B2
:1019E00000BF00BF144D6D6805F0F0010909154DE9
:1019F0006B5C0568DD4045600F4D6D6805F4E06186
:101A0000090A104D6B5C4568DD4085600A4D6D68C4
:101A100005F46051C90A0B4D6B5C4568DD40C5603B
:101A2000054D6D6805F44041890B074D6B5CC56839
:101A3000B5FBF3F5056130BD0010024000127A00DD
:101A400000093D00A60D0020B60D0020704710B51E
:101A500000F002F810BD00000CB5002001900090CD
:101A60003348006840F480303149086000BF304896
:101A7000006800F4003000900198401C019000982C
:101A800018B90198B0F5A06FF1D12948006800F4A9
:101A9000003010B10120009001E00020009000987B
:101AA000012843D12348006840F010002149086014
:101AB0000846006820F0030008600846006840F00F
:101AC000020008601A4840681949486008464068A2
:101AD00048600846406840F48060486008464068B6
:101AE00020F47C1048600846406840F4E8104860E4
:101AF0000846006840F08070086000BF0C4800682D
:101B000000F000700028F9D00948406820F0030078
:101B1000074948600846406840F00200486000BF3E
:101B20000348406800F00C000828F9D10CBD000003
:101B30000010024000200240042808D14FF0E021AC
:101B4000096941F004014FF0E022116107E04FF014
:101B5000E021096921F004014FF0E0221161704792
:101B60007047000010B51348006840F001001149AB
:101B7000086008464068104908400E494860084619
:101B800000680E4908400B4908600846006820F4C8
:101B9000802008600846406820F4FE0048604FF44A
:101BA0001F008860FFF753FF4FF000600449086092
:101BB00010BD0000001002400000FFF8FFFFF6FE1D
:101BC00008ED00E010B50121084800F04CF858B1CC
:101BD0000121064800F038F80548006808B90120DE
:101BE00000E000200249086010BD00000004004031
:101BF000AC0121427FB505460C4601210220FFF7CA
:101C00009BFEADF80850ADF804400020ADF80A0086
:101C1000ADF8060001A90B4800F040F81D208DF832
:101C2000000007208DF8010000208DF8020001203F
:101C30008DF803006846FFF73BFE0121014800F0E4
:101C400006F87FBD00040040CA430282704721B1FC
:101C5000028842F00102028004E002884FF6FE731F
:101C60001A400280704730B502460020002300244D
:101C7000158A05EA0103958905EA010413B10CB13F
:101C8000012000E0002030BD1AB183890B4383811D
:101C900002E083898B438381704700000022028821
:101CA0001D4B98420ED01D4B98420BD0B0F1804F87
:101CB00008D01B4B984205D01A4B984202D01A4BC1
:101CC000984204D14FF68F731A404B881A43174B32
:101CD000984207D0164B984204D04FF6FF431A4063
:101CE000CB881A4302808B8883850B8803850A4B37
:101CF00098420BD0094B984208D00E4B984205D021
:101D00000D4B984202D00D4B984201D10B7A0386BD
:101D10000123838270470000002C01400034014001
:101D20000004004000080040000C0040001000408B
:101D300000140040004001400044014000480140C0
:101D400010B540F225511D4800F04AF810B31B4869
:101D500000F002F9C4B21A48008800F40040C8B983
:101D60001748008800F4804060B10A2C03D000209E
:101D70001349088021E01248008840F400401049CF
:101D800008801AE00D2C06D10D48008840F48040F0
:101D90000B49088011E00A480088C0F30D0009498A
:101DA0000C5407480088401C0549088008460088F4
:101DB000B0F5FA7F01DB0020088010BD0044004030
:101DC000A40D00200C10002021B1828942F40052A1
:101DD000828104E082894DF6FF731A408281704748
:101DE00070B50246002400230025002040F66A1644
:101DF000B14200D100BFC1F3421501F01F0301261B
:101E000006FA03F3012D02D19689334006E0022D34
:101E100002D1168A334001E0968A33400C12012623
:101E200006FA04F41688344013B10CB1012000E026
:101E3000002070BDF0B503460024002600250020D8
:101E400040F66A17B94200D100BF1846C1F34214E8
:101E500001F01F06012707FA06F5012C01D10C300D
:101E600004E0022C01D1103000E014301AB10768F0
:101E70002F43076002E00768AF430760F0BD000032
:101E80002DE9F04786B005460E460024A24600BF65
:101E9000A1460027B08900B100BF2F462C8A4CF61E
:101EA000FF700440F08804432C82AC894EF6F31096
:101EB0000440B08831890843718908430443AC81E8
:101EC000AC8A4FF6FF400440B0890443AC8201A8BD
:101ED000FFF752FD1F48874202D1DDF810A001E054
:101EE000DDF80CA0A88900F4004040B10AEBCA005C
:101EF00000EB0A1031684900B0FBF1F807E00AEB8B
:101F0000CA0000EB0A1031688900B0FBF1F86420C8
:101F1000B8FBF0F004012009642101FB1089A889B5
:101F200000F4004040B1322000EBC900B0FBF1F0FA
:101F300000F00700044308E0322000EB09106421A0
:101F4000B0FBF1F000F00F0004432C8106B0BDE8B7
:101F5000F08700000038014001468888C0F308007F
:101F6000704700BFFEE730380A2801D201207047D1
:101F700000207047014600BF704700002DE9FF4F69
:101F800083B00D4617461E463E48008802900298D0
:101F9000C04380B202903C48008801900198C04341
:101FA00080B20190122F01D14FF0360BAA460024C7
:101FB00062E0C4EBC400C0EB84103449084490F8DC
:101FC00036003178884255D1C4EBC400C0EB841090
:101FD0002E49084490F83700717888424AD1C4EB02
:101FE000C400C0EB84102949084490F83800B17847
:101FF00088423FD14FF000083AE0C4EBC400C0EB88
:1020000084102249084410F8080000904FF000099D
:1020100026E0009800F0800030B11A480288294676
:102020000398FFF7EDF905E0174802882946039861
:10203000FFF7E6F94FF6FF71009801EA40000090C3
:10204000681C85B2A5EB0A00B84205D15546039835
:10205000401C80B2039006E009F101001FFA80F9EC
:10206000B9F1080FD5DB00BF08F101001FFA80F8B5
:10207000D845C2DB601C84B2282C9ADB07B0BDE8CF
:10208000F08F0000E6020020E8020020EA020020B3
:10209000F8B506460F4614461D4624E00EE0002023
:1020A00000902A78234639463046FFF7E1FA204669
:1020B00004EBD07106EB61018EB26D1C28787E288E
:1020C00002DC28782028EADA2B46224639463046B8
:1020D000FFF754FF6D1C2046E11704EB9171891046
:1020E000891C31448EB228780028D7D1F8BD000071
:1020F00010B56FF00400FFF71FFD0A4800680A4999
:10210000B0FBF1F0094908700846007800EB400187
:10211000C1EBC0104FF6FF7101EAC000044908800E
:1021200010BD00000000002000127A009A0D00206F
:102130009C0D00200146114A12884A434FF0E023CB
:102140005A6100229A611A46126942F001021A612C
:1021500000BF4FF0E022106900F001021AB100F454
:102160008032002AF5D04FF0E022126922F00102FD
:102170004FF0E0231A6100229A6170479C0D002005
:1021800000BF054A128802F04002002AF9D0C2B20C
:10219000014B1B1D1A80704700440040FFF7E2FC12
:1021A0004FF44070FFF7BCFB01206949C1F8D8002B
:1021B000FFF79EFFFEF7F4FE664800F031F9FFF7E7
:1021C0005DF941F61F4141F28730FFF713FD624888
:1021D00000F006F961480088FFF79AF847F67C504E
:1021E0005F4908805FA312220A215020FFF750FFA9
:1021F0005FA312221E215020FFF74AFF5FA3122285
:10220000B4210220FFF744FF5FA31222B4217D20F6
:10221000FFF73EFF5FA312225021AE20FFF738FFE9
:1022200000204B49487091E05D48008800F4004070
:10223000D8B15C495CA0FDF7F9FF01225BA15948C8
:10224000FEF794FA28B9424A521C59A15548FEF7A4
:1022500035F900205249088052495748FEF762FA82
:102260004FF496714F48FEF7CCFA3948407805286C
:1022700067D2DFE800F003354E5A40003448D0F80A
:10228000D810D0F8CC00814218D13148D0F8DC10F9
:10229000D0F8D000814211D14848007870B90122AD
:1022A00011464748FFF7F0FC4FF478402C4908806E
:1022B000444A6B21C620FFF759FA10E02448D0F8B1
:1022C000D810D0F8CC00814206D12148D0F8DC10DB
:1022D000D0F8D000814202D000203849087034E0A4
:1022E00039A0FDF7A3FF3449194800F04FF9002049
:1022F0001749487029E0304A1549891C01F1DE0070
:1023000000F0F6F900201249487031A0FDF78EFF69
:102310001BE029490E48F43000F0D4F800200C49A5
:1023200048702CA0FDF782FF0FE023490848B83021
:1023300000F098F900200649487027A0FDF776FFC5
:1023400003E000200249487000BF00BF6CE70000B6
:10235000E80E002080240100142A0008E802002072
:10236000E6020020E799BDE5A4A93A20202000005C
:10237000E5A49CE6999A3A2020200000E6988EE594
:10238000A4A93A2020200000E5908EE5A4A93A20D7
:1023900020200000E6989FE69C9F2020202000003F
:1023A000A40D00200C100020257300004000000048
:1023B0004025783A00000000BC0D0020E402002017
:1023C00000040040140000206D71747400000000CF
:1023D0007777000064640000736E74700000000082
:1023E000F0B50446C7231A4664210846FFF71AF9D8
:1023F0002C20FFF729FA00250EE0002609E02778B7
:10240000641C207840EA07273846FFF745FA641C29
:10241000761C642EF3D36D1C642DEED3F0BD00004A
:1024200010B586B0044601210420FFF795FA01217A
:102430004804FFF781FA0420ADF8140003208DF85A
:10244000160018208DF8170005A91C48FEF776FE27
:102450000820ADF8140004208DF8170005A91748CE
:10246000FEF76CFE26208DF8000000208DF801009C
:102470008DF8020001208DF803006846FFF718FA76
:1024800001940020ADF80800ADF80A00ADF80C008A
:10249000ADF810000C20ADF80E0001A90848FFF7B8
:1024A000EFFC012240F225510548FFF7C3FC012152
:1024B0000348FFF789FC06B010BD0000000801408A
:1024C0000044004030B587B004460D4604F12400B6
:1024D00004F10C0104F118032246CDE900101DA1FE
:1024E0002846FDF7EBFF04F11803224620A103A8BC
:1024F000FDF7A8FE4FF6FF702049088003AB1222BB
:102500003C210520FFF7C4FD04F1240304F10C0273
:102510001BA103A8FDF796FE03A812216423C8227D
:10252000CDE900104B210520FFF75AF900201223B6
:1025300025224B2100903020FFF79AF84BF64040BF
:102540000E490880104A1E210A20FFF70FF907B034
:1025500030BD000040307830323A20543A202573A4
:1025600020257320483A2025732025732000000081
:1025700025732E2573E2848300000000E60200200C
:1025800025732E25730000006C0200207FB50446E1
:102590000D4648F230401D4908801D4A6B21C62077
:1025A000FFF7E4F804F1DC00031F224619A10090B4
:1025B0002846FDF783FFDC20035926A102A8D4F8A2
:1025C000D820FDF73FFE02A812216423C822CDE9DE
:1025D00000108C21BE20FFF703F92078012809D1D3
:1025E0004FF6E070094908801D4A78211420FFF752
:1025F000BDF80AE0207840B948F23040034908802D
:10260000174A78211420FFF7B1F87FBDE6020020B9
:102610001400002040305830313A205357303A20CF
:102620002C3B737769746368302C25783B205448C1
:102630003A202C3B736574686F75722C25643B20BF
:10264000544D3A202C3B7365746D696E2C25643BA8
:1026500000000000253032643A253032640000006A
:10266000F401002030B589B004460D464FF6FF70E6
:102670001349088004F10C0004F11C010A1F131F08
:10268000CDE90132CDE90310001D631D22460DA1E5
:1026900000902846FDF712FFE069009010A106A8FF
:1026A000D4E90523FDF7CEFD06A820216423C82226
:1026B000CDE900107B213720FFF792F809B030BD3B
:1026C000E602002040307830333A2573202573200D
:1026D0002564202025643A25643A25642025640079
:1026E000253032643A253032643A253032640000B5
:1026F00070B590B005460C461646282106A8FEF790
:10270000A2F804F13800011F04F1220204F11003C1
:10271000CDE90132CDE903102C3823462A4674A1B5
:1027200000903046FDF7CAFE04F174010A1F04F15F
:102730005E0304F14C00CDE9013203910090031FC8
:10274000343A7AA13046FDF7B9FE04F1B0010A1F10
:1027500004F19A0304F18800CDE90132039100905D
:10276000031F343A7FA13046FDF7A8FE4FF6FF70F5
:102770008A49088004F1340304F1100288A106A8F4
:10278000FDF760FD06AB12220A217D20FFF780FCD9
:1027900004F1380304F1220281A106A8FDF752FDDD
:1027A00006AB12221E217D20FFF772FC04F170039C
:1027B00004F14C027DA106A8FDF744FD06AB1222F0
:1027C000C8210220FFF764FCEB237A22CD211046BA
:1027D000FEF7BAFD04F1740304F15E0273A106A8CA
:1027E000FDF730FD06AB1222DC210220FFF750FC82
:1027F00004F1AC0304F188026CA106A8FDF722FDE8
:1028000006AB1222C8217D20FFF742FC04F1B00381
:1028100004F19A0265A106A8FDF714FD06AB122289
:10282000DC217D20FFF734FC2B46122204210020FE
:10283000FFF72EFC4FF6FF705849088018206423DC
:10284000C8221946CDE900043E20FEF7C9FF04F175
:102850000C0058A1884206D157A312225021D22041
:10286000FFF716FC41E004F10C0054A1884206D1A8
:1028700053A312225021D220FFF70AFC35E004F1C5
:102880000C0050A1884206D14FA312225021D22021
:10289000FFF7FEFB29E004F10C004CA1884206D1B1
:1028A0004BA312225021D220FFF7F2FB1DE004F1CE
:1028B0000C0048A1884206D147A312225021D22001
:1028C000FFF7E6FB11E004F10C0044A1884206D1B9
:1028D00043A312225021D220FFF7DAFB05E041A3E7
:1028E00012225021D220FFF7D3FB10B070BD0000A0
:1028F00040307830343A20433A25732054443A200B
:1029000025732054573A202564205444573A2025F3
:102910007320544E573A202573205444543A2025AE
:102920007320544E543A2025730000004030783014
:10293000343A204E443A202573204E573A202573CE
:10294000204E44573A202573204E4E573A20257387
:10295000204E44543A20257320444E543A20257387
:102960000000000040307830343A2041443A2025BD
:10297000732041573A202573204144573A2025734C
:1029800020414E573A202573204144543A20257364
:1029900020414E543A20257300000000E60200203A
:1029A0002573202573E284830000000025732573BE
:1029B000E284830031000000E4B8800032000000AF
:1029C000E4BA8C0033000000E4B889003400000051
:1029D000E59B9B0035000000E4BA9400360000003F
:1029E000E585AD00E697A50010B500290AD0087866
:1029F000002807D005487844FEF738FA002801D0AF
:102A0000002010BD0248784410BD0000927D0000F7
:102A10008A7D0000000000000000000000000000AF
:102A200000000000000000000000000000000000A6
:102A30000000000000000000000000000000000096
:102A40000000000000000000000000000000000086
:102A50000000000000000000000000000000000076
:10317000000000002104E71C4A298C31CE3910429E
:10318000AD35AD356B2D0821630C0000000000004B
:10319000000000000000000000000000000000002F
:1031A000000000000000000000000000000000001F
:1031B000000000000000000000000000000000000F
:1031C00000000000000000000000000000000000FF
:1031D00000000000000000000000000000000000EF
:1031E00000000000000000000000000000000000DF
:1031F00000000000000000000000000000000000CF
:1032000000000000000000000000000000000000BE
:1032100000000000000000000000000000000000AE
:10322000000000000000000000000000000000009E
:103230000000630C8C31D65ADE7BFF7FFF7FFF7F5F
:10324000FF7FFF7FFF7FFF7FFF7FFF7FFF7FFF7F8E
:10325000FF7FFF7FFF7F39671042E71C00000000FF
:10326000000000000000000000000000000000005E
:10327000000000000000000000000000000000004E
:10328000000000000000000000000000000000003E
:10329000000000000000000000000000000000002E
:1032A000000000000000000000000000000000001E
:1032B000000000000000000000000000000000000E
:1032C00000000000000000000000000000000000FE
:1032D00000000000000000000000000000000000EE
:1032E00000000000000000000000000000000000DE
:1032F00000000000E71C9452FF7FFF7FFF7FFF7FED
:103300007B6FB556CE390821A514630C010000006F
:10331000000042088410C6186B2D524A1863FF7FC4
:10332000FF7FFF7FFF7F39678C31000000000000C6
:10333000000000000000000000000000000000008D
:10334000000000000000000000000000000000007D
:10335000000000000000000000000000000000006D
:10336000000000000000000000000000000000005D
:10337000000000000000000000000000000000004D
:10338000000000000000000000000000000000003D
:10339000000000000000000000000000000000002D
:1033A000000000000000000000000000000000001D
:1033B0000000000000000000524AFF7FFF7FFF7FF7
:1033C0001863CE39841000000000000000000000E7
:1033D000000000042008200C200C200C000800082D
:1033E000000400000000000000004A259452FF7F06
:1033F000FF7FFF7F3967E71C00000000000000002E
:1034000000000000000000000000000000000000BC
:1034100000000000000000000000000000000000AC
:10342000000000000000000000000000000000009C
:10343000000000000000000000000000000000008C
:10344000000000000000000000000000000000007C
:10345000000000000000000000000000000000006C
:10346000000000000000000000000000000000005C
:103470000000000000000000000084101863FF7FBF
:10348000FF7F7B6F8C310000000000000000000413
:10349000200C411461186118411841144114411461
:1034A0004114411441144114411441184118611848
:1034B0004114000800000000A5109452FF7FFF7F18
:1034C000FF7F8C31000000000000000000000000C1
:1034D00000000000000000000000000000000000EC
:1034E00000000000000000000000000000000000DC
:1034F00000000000000000000000000000000000CC
:1035000000000000000000000000000000000000BB
:1035100000000000000000000000000000000000AB
:10352000000000000000000000000000000000009B
:103530000000000000000000000000000000420841
:10354000F75EFF7FFF7FD65A0000000000000000FA
:1035500000084110611841184114411441144114EC
:1035600041144114411441144114411441144114B3
:10357000411441144114411441144114411841189B
:103580002010000000008D31DE7BFF7FFF7F0821CF
:10359000000000000000000000000000000000002B
:1035A000000000000000000000000000000000001B
:1035B000000000000000000000000000000000000B
:1035C00000000000000000000000000000000000FB
:1035D00000000000000000000000000000000000EB
:1035E00000000000000000000000000000000000DB
:1035F00000000000000000000000000000000000CB
:10360000000000009452FF7FFF7F524A000000003C
:1036100000000000211061184118411441144114A8
:1036200041144114411441144114411441144114F2
:1036300041144114411441144114411441144114E2
:103640004114411441144114411441144118000C17
:1036500000002925FF7FFF7FBD77420800000000A2
:10366000000000000000000000000000000000005A
:10367000000000000000000000000000000000004A
:10368000000000000000000000000000000000003A
:10369000000000000000000000000000000000002A
:1036A000000000000000000000000000000000001A
:1036B000000000000000000000000000000000000A
:1036C0000000000000000000C618FF7FFF7F396780
:1036D0002104000000000000411061184114411451
:1036E0004114411441144114411441144114411432
:1036F0004114411441144114411441144114411422
:103700004114411441144114411441144114411411
:103710004114411441144114411820100000CE35C9
:10372000FF7FFF7F1042000000000000000000004B
:103730000000000000000000000000000000000089
:103740000000000000000000000000000000000079
:103750000000000000000000000000000000000069
:103760000000000000000000000000000000000059
:103770000000000000000000000000000000000049
:103780000000000000000000000000000000734E78
:10379000FF7FFF7F0821000000000000411061183A
:1037A0004114411441144114411441144114411471
:1037B0004114411441144114411441144114411461
:1037C0004114411441144114411441144114411451
:1037D0004114411441144114411441144114411441
:1037E000411441144114000C00001863FF7FDE7B7C
:1037F00000000000000000000000000000000000C9
:1038000000000000000000000000000000000000B8
:1038100000000000000000000000000000000000A8
:103820000000000000000000000000000000000098
:103830000000000000000000000000000000000088
:103840000000000000000000000000000000000078
:10385000000000005A6BFF7F1863000000000000AA
:1038600020084114411441144114411441144114DD
:1038700041144114411441144114411441144114A0
:103880004114411441144114411441144114411490
:103890004114411441144114411441144114411480
:1038A0004114411441144114411441144114411470
:1038B000411400008C31FF7FFF7F082100000000D1
:1038C00000000000000000000000000000000000F8
:1038D00000000000000000000000000000000000E8
:1038E00000000000000000000000000000000000D8
:1038F00000000000000000000000000000000000C8
:1039000000000000000000000000000000000000B7
:1039100000000000000000004208FF7FFF7FAD357F
:1039200000000000000041104118411441144114EE
:1039300041144114411441144114411441144114DF
:1039400041144114411441144114411441144114CF
:1039500041144114411441144114411441144114BF
:1039600041144114411441144114411441144114AF
:10397000411441144114411441144114000C6310CA
:10398000FF7FFF7F314600000000000000000000C4
:103990000000000000000000000000000000000027
:1039A0000000000000000000000000000000000017
:1039B0000000000000000000000000000000000007
:1039C00000000000000000000000000000000000F7
:1039D0000000000000000000000000000000630C78
:1039E000FF7FFF7FE71C000000000004411441142A
:1039F000411441144114411441144114411441141F
:103A0000411441144114411441144114411441140E
:103A100041144114411441144114411441144114FE
:103A200041144114411441144114411441144114EE
:103A30004114411441144114411441142010000C4C
:103A4000000C000C2010201400009C6FFF7F734EB0
:103A50000000000000000000000000000000000066
:103A60000000000000000000000000000000000056
:103A70000000000000000000000000000000000046
:103A80000000000000000000000000000000000036
:103A90000000000000000000000000000000000026
:103AA00000000000A514FF7FFF7F841000000000CD
:103AB0002008611841144114411441144114411467
:103AC000411441144114411441144114411441144E
:103AD000411441144114411441144114411441143E
:103AE000411441144114411441144114411441142E
:103AF000411441144114411441144114411441141E
:103B0000201000084931D55E5A6F396BAC39000876
:103B100040140008F75EFF7F945200000000000090
:103B20000000000000000000000000000000000095
:103B30000000000000000000000000000000000085
:103B40000000000000000000000000000000000075
:103B50000000000000000000000000000000000065
:103B600000000000000000000000630CFF7FFF7FEA
:103B7000000000000000200C6118411441144114A1
:103B8000411441144114411441144114411441148D
:103B9000411441144114411441144114411441147D
:103BA000411441144114411441144114411441146D
:103BB00041144114411441142010000C0008000C61
:103BC000201000080008000CEE45FF7FFF7FB45A6C
:103BD000EE45304AFF7FBD7B000C40140004D65AEE
:103BE000FF7FB5560000000000000000000000004C
:103BF00000000000000000000000000000000000C5
:103C000000000000000000000000000000000000B4
:103C100000000000000000000000000000000000A4
:103C20000000000000000000000000000000000094
:103C30000000FF7FFF7F420800000000200C611899
:103C400041144114411441144114411441144114CC
:103C500041144114411441144114411441144114BC
:103C600041144114411441144114411441144114AC
:103C7000411441144114411441144010000C000837
:103C8000282DF762FF7FFF7FFF7FFF7FFF7FFF7F92
:103C9000FE7F893900040408010C00100008FF7F32
:103CA0005A6F000841140008F75EFF7FEF3D0000E7
:103CB0000000000000000000000000000000000004
:103CC00000000000000000000000000000000000F4
:103CD00000000000000000000000000000000000E4
:103CE00000000000000000000000000000000000D4
:103CF0000000000000000000DE7BFF7FC61800000F
:103D00000000200C61184114411441144114411465
:103D100041144114411441144114411441144114FB
:103D2000411441144014201020104010411441143B
:103D3000411420102010000C000841146218000CDF
:103D40000008C5209356FF7FFF7F9356E628000C9E
:103D500020106118C42440180104110038003700F5
:103D6000380032004014000CFF7FA31C40144114A3
:103D7000000C5A6BFF7F4A29000000000000000081
:103D80000000000000000000000000000000000033
:103D90000000000000000000000000000000000023
:103DA0000000000000000000000000000000000013
:103DB0000000000000000000000000000000186388
:103DC000FF7F2925000000002008611841144114DC
:103DD000411441144114411441144114411441143B
:103DE00041144114411441144114000862186A3509
:103DF0004931C524621820102010C520304ABC77F4
:103E0000FF7FFF7FFF7FFF7FFF7FFF7F17672731E8
:103E1000000800102310460C460C260C270C310419
:103E20003800360035003500150036003400000C2F
:103E3000F7629356000C411441140004FF7FFF7F8A
:103E4000210400000000000000000000000000004D
:103E50000000000000000000000000000000000062
:103E60000000000000000000000000000000000052
:103E70000000000000000000000000000000000042
:103E800000000000AD35FF7F524A00000000000432
:103E90006118411441144114411441144114411456
:103EA000411441144114411441144114411420108F
:103EB0002010596BFF7FFF7FFF7FFF7FFF7FFF7F1A
:103EC000FF7FFF7F7B73EE45C324000C0008401882
:103ED0006018000803080A0432043700370037006E
:103EE00037003700370036003500350015007608FA
:103EF000B918770C1700020CEE457B73000C4114C7
:103F0000411420108318FF7FDE7B000000000000BA
:103F100000000000000000000000000000000000A1
:103F20000000000000000000000000000000000091
:103F30000000000000000000000000000000000081
:103F4000000000000000000000004208FF7F9C739A
:103F500000000000000041144114411441144114B8
:103F60004114411441142010000800080008000802
:103F70000008000800044831FF7F576F2014000834
:103F80000008000800082010000C0008000C030CBA
:103F90002E043700380017001700370037003600AE
:103FA0003600350035003500350035003500350068
:103FB0003500350056083B311B2D3C31780805088B
:103FC0004935FF7F0008411441144114000CAC39FD
:103FD000FF7F94520000000000000000000000007D
:103FE00000000000000000000000000000000000D1
:103FF00000000000000000000000000000000000C1
:1040000000000000000000000000000000000000B0
:104010000000BD77FF7F0000000000004114411444
:1040200041144114411441144114000C0008EE45A0
:10403000FD7FFF7FFF7FFF7FFF7FFD7FFF7FFF7F94
:10404000712D0C001600380037003700370034009F
:1040500031043004360037003600350035003500B5
:1040600035003500350035003500150035003500C8
:1040700035003500350014003500350097101B2D34
:104080001B291B2DDB1C020C2831FF7F000841146B
:1040900041144114411400041863FF7F8410000090
:1040A0000000000000000000000000000000000010
:1040B0000000000000000000000000000000000000
:1040C00000000000000000000000000000000000F0
:1040D00000000000000000008C31FF7FCE3900009E
:1040E0000000200C41182010000C6114000800088A
:1040F00000080F4AFF7FFF7F9831950C9510F51847
:10410000141D5629352514001500360035003500DC
:1041100035003500350035003600360035003500F5
:1041200035003500350035003500350035003500E7
:1041300015001A3E14003500350035001400DC5A15
:104140001400350056081B2D1B291B29DC20210CCF
:10415000C420FF7F0008411441144114411441144C
:104160004114FF7FDE7B0000000000000000000023
:10417000000000000000000000000000000000003F
:10418000000000000000000000000000000000002F
:10419000000000000000000000000000000000001F
:1041A000FF7FDE7B0000000000004118000CE628C5
:1041B000FF7FFF7FFF7FFF7FFF7FFF7F382114009E
:1041C0001500150015001500150015001500350027
:1041D0003500350035003500350035003500350037
:1041E0003500350035003500350035003500350027
:1041F00035003500350035001400FF7F56041500EA
:10420000150014007608FF7F140035001400DA2032
:104210001B2D1B2DBB18260C0008FF7F8B3920108F
:104220004114411441144114000CEE41FF7FAD359F
:10423000000000000000000000000000000000007E
:10424000000000000000000000000000000000006E
:10425000000000000000000000000000000000005E
:10426000000000000000524AFF7FA514000000007B
:1042700041102010282DFF7FFF7F13005504B71039
:1042800035001400150035001500350035003500E7
:104290003500350035003500350035003500350076
:1042A0003500350035003500350035003500350066
:1042B0003500350035003500150015003500350096
:1042C00014005B4A3B46F818BA3159255B469B4EB1
:1042D0001300150035001500770C770C150032001F
:1042E0002010EE45FF7F0008411441144114411491
:1042F00041140004DF7BFF7F00000000000000008D
:1043000000000000000000000000000000000000AD
:10431000000000000000000000000000000000009D
:104320000000000000000000000000000000FF7F0F
:104330007B6F0000000000046118000C7A6F304AA7
:10434000FF7F1400150015001500350035005608D4
:10435000D91C5608150035003500350035003500EC
:1043600035003500350035003500150035003500C5
:1043700035003500350015001500350035001400F6
:10438000FF7FF71814001400DA35FF7FFF7F9B775B
:104390001663586BDC7BFF7F5F6BB7101400350032
:1043A000350035003500170043100008FF7F282D29
:1043B0002010411441144114411420104931FF7F51
:1043C000CE390000000000000000000000000000E6
:1043D00000000000000000000000000000000000DD
:1043E00000000000000000000000000000000000CD
:1043F00000000000EF3DFF7FA51400000000411009
:1044000041140008FF7F2010FF7F992D1400350014
:104410003500350036043C311B2D3B31770C35001F
:1044200035003500350035003500350035003500E4
:1044300015005825150035003500350015001A42C5
:10444000B6101500350015007608FF7F960CFF7F2B
:10445000DC7BE61C00000000000000000000000003
:104460000F42FF7FDD5A1400150035003604BA1CD8
:10447000720C000C514E5A6F000841144114411443
:1044800041144114000CDE7BFF7F0000000000009F
:10449000000000000000000000000000000000001C
:1044A000000000000000000000000000000000000C
:1044B000000000000000000000000000FF7FBD774A
:1044C00000000000000461182010282DFF7F000468
:1044D0005629FF7F150015003500350097101B2D5C
:1044E0001B291B29FA28140035003500350035003A
:1044F00035003500350035001400FF7F171D14000E
:10450000150015001300FF7F35003500350035001C
:104510001400DA35FF7F6B2D000000000000000062
:10452000000000000000000000000000796FFF7F25
:1045300014001500B8181B2D3E2D41104014FF7FAC
:1045400041144114411441144114411420108B3979
:10455000FF7F8C3100000000000000000000000020
:10456000000000000000000000000000000000004B
:10457000000000000000000000000000000000003B
:1045800000002925FF7F2925000000004110000CB4
:104590004114FF7F9356020C1000BA56FF7F15009E
:1045A0001500350097101B2D1B291B293B313500A9
:1045B0003500350035003500150014003500350094
:1045C000140058253D67D714BA35FB3DBA35FF7F37
:1045D00013001400350015003500FF7FC6180000D9
:1045E00000000000000000000000000000000000CB
:1045F000000000000000F55E7F6F140097103B3153
:104600003D2D4A100008BD77EE41201041144114A1
:104610004114411441140008FF7F7B6F000000002B
:10462000000000000000000000000000000000008A
:10463000000000000000000000000000000000007A
:10464000000000000000000000003967FF7F00004C
:1046500000000000000CCD41FF7FB55A000C4D0852
:1046600050080E005D6BFF7F14001500770C1B2DAA
:104670001B291B293C31350035003500350015005C
:10468000F718BC5614001400970C5F6BFF7FBB77C4
:104690001663B3563767FF7FFF7F7C4E140013000D
:1046A000FF7FAD35000000000000000000000000AA
:1046B00000000000000000000000000000000000FA
:1046C000FD7FDA3514009814DA2030002010104AEB
:1046D000396B000C41144114411441144114000C75
:1046E0009456FF7F42080000000000000000000018
:1046F00000000000000000000000000000000000BA
:1047000000000000000000000000000000000000A9
:104710000000FF7FB5560000000000048B39FF7FCA
:10472000C520000C2B089410F71C2F080E007D6F7D
:10473000BF77140015001B2D1B2D3B319810150061
:1047400035003500350035001400FF7FB9319C4E2F
:10475000FF7FEE3D000000000000000000000000B0
:1047600042083867FF7F3C46BC770000000000002D
:104770000000000000000000000000000000000039
:1047800000000000000000004208FF7F1400150038
:10479000150033002010AC3D9C73000C41144114F3
:1047A0004114411441142010C520FF7F3146000000
:1047B00000000000000000000000000000000000F9
:1047C00000000000000000000000000000000000E9
:1047D00000000000000000006B2DFF7FA51400000A
:1047E00000000008BD77AD3D000C270C7D29FF3D82
:1047F000DF39BF352F080E00FF7F1A3E1400350049
:10480000770C1500150035003500350035003500F2
:1048100015001500FF7F7A6F000000000000000007
:10482000000000000000000000000000C518FF7F2D
:10483000314600000000000000000000CF352D6E62
:104840004F6A8D2D000000000000000000000000F5
:104850000000BB7759291500360032002010304A7D
:10486000396B000C4114411441144114411441149A
:104870000008DE7BDE7B000000000000000000007E
:104880000000000000000000000000000000000028
:104890000000000000000000000000000000000018
:1048A0001863FF7F000000000000000CFF7F62180B
:1048B0002010D31CDF39BF35BF35DF39D61C0E00C1
:1048C000B535BF77140035003500350035003500AB
:1048D000350035003500350014001E6317630000F5
:1048E00000000000000000000000000000000000C8
:1048F0000000000000000000FF7FC618000000005C
:104900000000725A207DA57D837D617D524E00009E
:1049100000000000000000000000AD393F631400FB
:10492000360030040010B45AB55A000C411441143A
:104930004114411441144114000CB45AFF7F210466
:104940000000000000000000000000000000000067
:104950000000000000000000000000000000000057
:104960000000000000000000FF7F5A6B0000000004
:1049700000007B739C73000820109E2DBF35BF354F
:10498000BF35DF357C2D0E04F320FF7F140035008A
:10499000350035003500350035003500350015008F
:1049A000792DFE7F000000000000000000000000E4
:1049B00000000000000000000000000000000000F7
:1049C000A514FF7F00000000C718A57DD27EFF7FE1
:1049D000FF7F4C7E4B7E630400000000000000005F
:1049E0000000C518DF7B140036002E040010D65ED0
:1049F0009356000C411441144114411441144114C4
:104A00002010292DFF7F4A2900000000000000002F
:104A10000000000000000000000000000000000096
:104A20000000000000000000000000000000630C17
:104A3000FF7FAD35000000005A6FFF7F000C40146F
:104A40002B08BF35BF35BF35BF35BF359D312E046F
:104A5000700CFF7F1400350035003500350035003F
:104A60003500350035001400FF7FA514000000005C
:104A700000000000000000000819EF39F0390000C4
:104A8000000000000000000000003967314600000F
:104A9000CE35C07CFF7FFF7FFF7FFF7F207D8C2D89
:104AA000000000000000000000002104FF7F130050
:104AB00036002E08000CF762514E000C41144114D0
:104AC000411441144114411441142010FF7FB55684
:104AD00000000000000000000000000000000000D6
:104AE00000000000000000000000000000000000C6
:104AF0000000000000006B2DFF7F841000004208C2
:104B0000FF7F000C4014481030049C31BF35BF3586
:104B1000BF35DF395A292F080F00FF7F76081500AF
:104B20003500350035003500350035001500F81822
:104B3000FE7F000000000000000000000000734E37
:104B4000C67DC07C007DD27EA61000000000000063
:104B50000000A514FF7F00002A25627D367FFF7FBD
:104B6000FF7FD37EE77D8408000000000000000086
:104B70000000C518FF7F5B4615002E040010D55EAF
:104B80009356000C41144114411441144114411432
:104B900041140008BD77BD77000000000000000050
:104BA0000000000000000000000000000000000005
:104BB0000000000000000000000000000000734E34
:104BC000FF7F000000008310FF7F000440144910A5
:104BD00030083925DF39BF35BF35FF3D7210500829
:104BE0000E00FF7F582515003500350035003500D3
:104BF000350035001400BD52514A0000000000008D
:104C0000000000004A21A47D6D7EFF7FFF7F207D94
:104C1000F47E00000000000000000000FF7F630C35
:104C20000000B36AE07C4C7E2C7EE07C715E00006C
:104C300000000000000000000E42FF7F38211A3EF5
:104C40001E5F0E000010B45AB45A000C41144114F7
:104C500041144114411441144114000CF762FF7FC8
:104C60000000000000000000000000000000000044
:104C70000000000000000000000000000000000034
:104C80000000000000003967FF7F00000000000006
:104C9000FF7FB45A0008401450085008BE35FF3D4D
:104CA000DF39B4142F0850080F04584ADF7B140072
:104CB00035003500350035003500350014007F6BB8
:104CC0002925000000000000000000000F42007DC8
:104CD000FF7FFF7FFF7FF47E2A7E640800000000D4
:104CE000000000009C7308210000000030524D7E3F
:104CF0006D7E0F46000000000000000000001663FB
:104D00005F67140015001300FF7F10002010304A69
:104D1000396B000C411441144114411441144114E5
:104D20004114000C514EFF7F630C00000000000096
:104D30000000000000000000000000000000000073
:104D40000000000000000000000000000000FF7FE5
:104D50005A6B0000000000046218FF7F304A000810
:104D6000411451082F04500C2E044F0850085008CD
:104D700050080E00FF7FBC5614003500350035008A
:104D8000350035001400FF7FC5180000000000004A
:104D900000000000EF3DE07CFF7FFF7FFF7FB17EE2
:104DA0002A7E01000000000000000000F75E8C3148
:104DB00000000000000000000000000000000000F3
:104DC00000000000BB779D4E140035003500140034
:104DD000FF7F16002010C524FF7F000841144114F6
:104DE0004114411441144114411420106A35FF7FCD
:104DF000082100000000000000000000000000008A
:104E000000000000000000000000000000000000A2
:104E1000000000000000FF7FB55600000000200CDD
:104E200020106218FF7FEE45001040145108500812
:104E30005008500850085008500850082F04FF7FB1
:104E40005B4A1400350035003500350014009F6FB3
:104E5000082100000000000000000000850C4B7ECF
:104E6000847D9B7FF47EE07CB36600000000000040
:104E7000000000007B6F29250000000000000000FA
:104E800000000000000000000000FE7FFB3914005D
:104E90003500350035001400FF7F1600490C00086E
:104EA000FF7F8B39201041144114411441144114E7
:104EB00041142010C524FF7F6B2D0000000000006E
:104EC00000000000000000000000000000000000E2
:104ED0000000000000000000000000000000FF7F54
:104EE000524A00000000211041142010A420FF7F2E
:104EF000000C40144910510850082F082F08500882
:104F0000500850082F08500CFF7F1A3E140035003F
:104F1000350035001400FE5ECD39000000000000B1
:104F20000000000000006C25B07E627DE77DB36A62
:104F3000000000000000000000000000FF7F84105F
:104F40000000000000000000000000000000AC3580
:104F5000FF7F182114003500350035001500182199
:104F60005E6B150033002010304A7B73000841143B
:104F7000411441144114411441144014A31CFF7FF7
:104F800010420000000000000000000000000000CF
:104F90000000000000000000000000000000000011
:104FA000000000002104FF7F1042000000004110BB
:104FB000411441140008FF7F493120104510510869
:104FC0002F085B299D3150085008500850082F04C5
:104FD000D218FF7F14003500350035001500592523
:104FE0009A730000000000000000000000000000B4
:104FF0000000091D64040000000000000000000023
:1050000000002104FF7F00000000000000000000FD
:1050100000002104FD7FDE5A150015003500350023
:10502000350035001400FF7F56041500380041108C
:105030006118FF7F201041144114411441144114A0
:10504000411441146114FF7F734E00000000000002
:105050000000000000000000000000000000000050
:10506000000000000000000000000000630CFF7F53
:10507000AD3500000000411041144114000CB45A39
:105080001867000C41143108F61CDF39DF39182588
:105090002F085008500850080E00FF7F76041500B6
:1050A0003500350035001400FF7F20040A0D6E1115
:1050B0002B0D0000000000000000000000000000B8
:1050C000000000000000000000003146FF7FFF7F6D
:1050D0006A2D00000000E61C586FFF7FB714140013
:1050E000350035003500350015001400FF7F7929A3
:1050F000140035003700490C0008FF7FAC39201040
:10510000411441144114411441144114000CFF7F17
:10511000734E0000000000000000000000000000CE
:10512000000000000000000000000000000000007F
:1051300000000000630CFF7F8C3100000000411074
:10514000411441142010C524FF7F000840142D088D
:105150007C2DDF35BF357C2D2F08500850085008B6
:105160000E00FF7FB60C1500350035003500140029
:105170003B46FD321909B808390D5C1E4D1100007F
:10518000000000000000000000000000000000001F
:105190000000FF7F1500B710FF7FFF7FFF7F3F6795
:1051A000F8181400150035003500350035001400DE
:1051B0007604FF7F792D14003500350036002D0868
:1051C0000010B55A945A000C411441144114411472
:1051D000411441140008FF7F734E000000000000DE
:1051E00000000000000000000000000000000000BF
:1051F0000000000000000000000000002104FF7F0C
:10520000AD35000000004110411441144114000864
:10521000FF7FCD41000C250C3B21DF39DF395B29B5
:105220002F085008500850080E00FF7FB6101500D8
:1052300035003500350014003A1A550015001500E8
:1052400015001500DA15C808000000000000000075
:105250000000000000000000FD7F3B42140014002D
:10526000F71C3B46150014001500350035003500CD
:105270001500140014005B46FF7F7608140035000B
:105280003500350036002E080010B45AB45A000C10
:105290004114411441144114411441142010FF7F62
:1052A000734E00000000000000000000000000003D
:1052B00000000000000000000000000000000000EE
:1052C000000000000000FF7F1042000000002110DD
:1052D00041144114411420100729FF7F6A35000C46
:1052E00048109F319D31500C50085008500850080C
:1052F0000E00FF7FD7141500350035001500D708C4
:105300009815150035003500350035001500561E7E
:105310000000000000000000000000000000DC7F32
:105320001E6314003500350015001400150015002B
:105330001500150014001400960CDC56FF7FFF7F4B
:105340001A42B931F71815003500350036002C081F
:105350000010B45AB55A000C4114411441144114C0
:10536000411441144114FF7F524A00000000000024
:10537000000000000000000000000000000000002D
:105380000000000000000000000000000000FF7F9F
:10539000524A00000000200C4114411441144114F1
:1053A000000C0729FF7F0F46000C270C3004500823
:1053B000500850084F082F040E00FF7FBA35140024
:1053C000350035001500F919560035003500350057
:1053D000350035001500391E0000000000000000F7
:1053E00000006A2DFF7F9C4E14003500350035000B
:1053F00035003B463821181D1821B935DC56FF7F92
:10540000BE73792D5604F7183825FF7F1D5F1400F1
:105410003500350036002B08000CF7625252000CA4
:10542000411441144114411441144014831CFF7F62
:10543000CE39000000000000000000000000000065
:10544000000000000000000000000000000000005C
:10545000000000000000FF7FB55600000000200C97
:1054600041144114411441144114000CA41CFF7F49
:10547000282D20144F0C500850082F04D5189E31A9
:10548000D71C1221FF7F760C1500350015005A1E1F
:105490001500350035003500350014001400BB261A
:1054A000AB394929CD391663FF7FFF7FD71414002C
:1054B000350035003500350015001A42FD5E1D63CC
:1054C000BC563A425825140014001500150013006C
:1054D0001D5FFD5E140035003500350036002B08D9
:1054E000000CF762524E000C411441144114411457
:1054F00041142010C524FF7F6B2D00000000000028
:10550000000000000000000000000000000000009B
:105510000000000000000000000000000000DE7B32
:105520007B6F000000002008411841144114411411
:1055300041144114000C524E1867000C4B0C5108DA
:105540004F08D61CFF3DBF35FF3D7410D639FF7F95
:105550005504150015005A1E1500350035001500BC
:105560003821FF7F792DB919FE5E5F6BDE5ADB397A
:10557000960C140015003500350035003500350057
:105580003500150014001400140015001500350036
:1055900015001400960CFF7F3A42140035003500C8
:1055A0003500350036002B08000CF762524E000C17
:1055B0004114411441144114411420106B35FF7FF4
:1055C00008210000000000000000000000000000B2
:1055D00000000000000000000000000000000000CB
:1055E0000000000000003967FF7F00000000000499
:1055F00061184114411441144114411420106A35BA
:10560000DE7B000C481051082E04BF35BF35BF3576
:10561000BF35BE350D00384AFF7F15001500F7086D
:105620003A1E1500150015001400FF7FFF739E7BC6
:1056300096101300140015001500350035003500D4
:1056400035003500350035003500350035003500B2
:10565000350015001500140056045D67FF7FB61075
:1056600014003500350035003500350036002C08B3
:10567000000CF762524E000C4114411441144114C5
:105680004114000C304AFF7F420800000000000077
:10569000000000000000000000000000000000000A
:1056A0000000000000000000000000000000314683
:1056B000FF7F0000000000006118411441144114F4
:1056C000411441144014A420FF7F000C45105108E0
:1056D0004F08FF3DBF35BF35BF35DF394F080E00DE
:1056E0001B63FF7B14001500B6083A1E3A1A170D0B
:1056F0001400DC5EDF53BF43FF7BBE7BD93914004F
:105700001400150015003500350035003500350052
:10571000150015001500140014005604DB35DF7B5E
:10572000FF7F3821140015003500350035001500C5
:105730001500150036002D080010B55A5252000C05
:1057400041144114411441144114000C1867FF7FA7
:105750000000000000000000000000000000000049
:105760000000000000000000000000000000000039
:105770000000000000002925FF7FA51400000000A4
:1057800041144114411441144114411441140008BE
:10579000FF7FA31C401452082F04FF39BF35BF35CB
:1057A000BF35FF3D2E0450083008FF7F58251500F7
:1057B00015001500350096041500D714FF7F7F33C0
:1057C0007F37BF43FF67FF7F3D6BFA3DB610350063
:1057D00014001400150015005604B714B935FD5E09
:1057E000FF7FFD7F714E2004BF7714003500350028
:1057F000350035003604FA241B29981415003004AE
:1058000020107252D65E000C411441144114411410
:1058100041140008BD779C730000000000000000E8
:105820000000000000000000000000000000000078
:105830000000000000000000000000000000210443
:10584000FF7F314600000000401041144114411414
:10585000411441144114000C9B73314E00084B0C51
:1058600030047C2DBF35BF35DF397C2D2F04500827
:105870000E005D6B7B4E14003500350035003500A1
:1058800035001400FF7FBF439F3B9F3B9F379F33F3
:10589000BF47FF63FF77FF7FFE7FFF7FFE7FDB7BDE
:1058A0003667FF7FFF5FFE7F000000000000000002
:1058B0001663B7101500350035001500FA281B2DAA
:1058C0001B293B31981033002010AC3DBD7B000CF0
:1058D000411441144114411441144114FF7FB55641
:1058E00000000000000000000000000000000000B8
:1058F00000000000000000000000000000000000A8
:105900000000000000000000FF7F5A6B0000000054
:10591000200841184114411441144114411420102D
:10592000E524FF7FCE41000C4A0CB514FF3DDF3962
:10593000DF399310500850080F00FB5E5B461400DF
:10594000350035003500350035001500DA39FF6FB8
:105950007F379F3B9F3B9F3B9F3B9F377F33FF732F
:1059600000000000000000000000FF7F7F2BFF7F91
:105970000000000000000000C518FF5E14003500A4
:10598000350035001B2D1B291B291B29FA24170064
:105990004014E624FF7F00084114411441144114CF
:1059A00020106A35FF7F292500000000000000005C
:1059B00000000000000000000000000000000000E7
:1059C00000000000000000000000000000000000D7
:1059D000B556FF7F0000000000006118411441141B
:1059E0004114411441144114000CE524FF7FEE41A1
:1059F000000C2B08D6185A2992102F08500850086E
:105A00000E009E73B93115003500350035003500A4
:105A1000350035001400FF7F9F3B9F3B9F3B9F3B22
:105A20009F3B9F3B7F37FF6F63100000000000002B
:105A30000000FF7F7F2FFF73841400000000000030
:105A40000000FF7F14003500350035003B311B2975
:105A50001B291B293B31170042142010FF7F201007
:105A60004114411441144114000CD55AFF7F000029
:105A70000000000000000000000000000000000026
:105A80000000000000000000000000000000000016
:105A900000000000000000000821FF7F0821000036
:105AA00000004110411441144114411441144114A7
:105AB00041140010C420FF7F0729201050082F0830
:105AC00050085008500850080E00FF7FF7181500C6
:105AD0003500350035003500350035001400FA3D3D
:105AE000FF6F7F379F3B9F3B9F3B9F3B9F37FF63F2
:105AF000292900000000000000007B739F33DF4F66
:105B0000525200000000E71C9A739C4E14003500AE
:105B100035001500FA241B291B291B2DFA24170018
:105B200043100008FF7FE624201041144114411463
:105B3000000CFF7F9C7300000000000000000000CC
:105B40000000000000000000000000000000000055
:105B50000000000000000000000000000000000045
:105B60000000FF7FF75E000000002008411841148C
:105B7000411441144114411441144114000C0F4AC2
:105B8000DE7B000C4C0C51084F082F0850085008C1
:105B90000F009D775B4A1400350035003500350055
:105BA0001500350035001500FF7F9F3B9F3B9F3B55
:105BB0009F3B9F3B9F3BBF47945A00000000000063
:105BC0002929BC7F9F3F7F33FF7BFF7FDE73FF7FF1
:105BD00059251400350035003500350056083B3195
:105BE0001B2D1B2D3600370042140008FF7FE628CE
:105BF00020104114411420100729FF7FCE390000E6
:105C00000000000000000000000000000000000094
:105C10000000000000000000000000000000000084
:105C200000000000000000000000F75EFF7F0000A1
:105C30000000000061184114411441144114411442
:105C40004114411420106A35FF7F000C4C0C3008C1
:105C5000B4185A294F08500830089110FF7FD71404
:105C6000150035003500560898143500350014002D
:105C70005B4AFF6F7F379F3B9F3B9F3B9F3B7F3341
:105C8000FF7FBD7BFF7FFF7FFF67BF439F3B9F3B46
:105C90007F379F37FB2AA41C5F6B1400350035004B
:105CA0003500350035003500770C1500350034001F
:105CB00040146218FF7F000C411441144114000C81
:105CC000F762FF7F000000000000000000000000FD
:105CD00000000000000000000000000000000000C4
:105CE00000000000000000000000000000000000B4
:105CF0000000C618FF7F8C3100000000200C41140A
:105D000041144114411441144114411420108B39A1
:105D1000FF7F000C4D0C710CFF3DFF3DB4184F0888
:105D200050080F04752DFF7F1500150035003C311C
:105D30001B2DFA24150035001400FF7F9F3F9F3B69
:105D40009F3B9F3B9F3B9F3B9F379F377F377F37D3
:105D50009F379F3B9F3B9F3B9F3B9F3BFF430000E9
:105D6000FF7F150035003500350035003500350062
:105D70003500350036002F0420108B39DE7B0008FB
:105D80004114411441144010FF7F396700000000A6
:105D90000000000000000000000000000000000003
:105DA00000000000000000000000000000000000F3
:105DB000000000000000000000000000FF7FFF7FE7
:105DC0000000000000006118411441144114411406
:105DD000411441142010282DFF7F00084C08D618CC
:105DE000DF39FF3D92105008500850080E00BA5697
:105DF000FF7F140035003B311B293B313500350056
:105E000015007829FF7F7F339F3B9F377F379F3770
:105E10009F3B9F3B9F3B7F379F37BF479F437F33CE
:105E20009F3B9F3BDF3FA6049973F8181500350090
:105E300035003500150035003500350036004B08BB
:105E400000109356D65E000C411441144014C52036
:105E5000FF7FC618000000000000000000000000E6
:105E60000000000000000000000000000000000032
:105E70000000000000000000000000000000000022
:105E8000000000008C31FF7F292500000000210C5C
:105E90004114411441144114411441144014831C11
:105EA000FF7F00084B0C51089D3118212F08500826
:105EB0005008500850080E00FF7F79291400D91CA3
:105EC0001B2D3C3135003500350014005E6FDF5767
:105ED0009F3FFF63FF73FF5F9F3B7F33BF4BFF7F9E
:105EE000FF7F7B67BD77FF7FBF4B7F33DF3F4B116A
:105EF000D45E9A2D1500350035001500B918981498
:105F0000140035003700490C000C596B304A201042
:105F1000411441144118000000000000000000007E
:105F20000000000000000000000000000000000071
:105F30000000000000000000000000000000000061
:105F40000000000000000000000000000000FF7FD3
:105F5000FF7F00000000000061184114411441144B
:105F6000411441144114000CFF7F0629230C5208F0
:105F70002F082F08500850085008500850080F00EC
:105F8000BB569C5214001500B91C97101500350023
:105F900035001500D714FF7F7B67532AD011753663
:105FA000FF7FFF7F7C6BD0112D014E014D01B009A9
:105FB0009C6FFF77BF372A0DF56239211500350038
:105FC0003500770C3B311B2DD920150036002D08EC
:105FD000000C5A6FEE45201041144114200C0000B3
:105FE00000000000000000000000000000000000B1
:105FF00000000000000000000000000000000000A1
:106000000000000000000000000000000000000090
:106010000000000000008C31FF7F6B2D00000000AD
:10602000200C411441144114411441144114000C3A
:106030009356DE7B000C490C51085008500850085C
:106040005008500850080F049B52BC5214003500F1
:106050001500350035003500350035001400BF77D8
:1060600033228F056F016E014D01542EFF7FB00D5D
:106070008F018F018F018F012D01D84AFF7F000012
:10608000FF7F360015003500350098141B2D1B29A5
:106090003C31350035003500201073523867000C54
:1060A0004114411800000000000000000000000042
:1060B00000000000000000000000000000000000E0
:1060C00000000000000000000000000000000000D0
:1060D00000000000000000000000000000000000C0
:1060E000FF7FFF7F000000000000411441144114B5
:1060F00041144114411441140008FF7FB45A000CAC
:106100004E0C5008500850085008500850080F0016
:10611000BB569C4E1400350035001400560856043A
:106120001500350015003500FF7F4D018F018F01EF
:106130008F016E018F055B5F6E018F018F018F01F3
:106140008F014D011953BC7BDD5A14003500160038
:10615000350035001B291B2D3B311500350039005A
:106160004014E624FF7F00086118200800000000AA
:10617000000000000000000000000000000000001F
:10618000000000000000000000000000000000000F
:1061900000000000000000000000000000000000FF
:1061A0000000000000000000C618FF7F734E0000D2
:1061B00000000004611841144114411441144114B9
:1061C00040144010FF7F0529280C510850084F0843
:1061D0002E044F0850080F00FC5E3B4614003500AB
:1061E0001400DA203B2D3B31D92014003500140077
